{
	"contractName": "LendNFT",
	"abi": [
		{
			"inputs": [],
			"stateMutability": "nonpayable",
			"type": "constructor"
		},
		{
			"inputs": [
				{
					"internalType": "address",
					"name": "sender",
					"type": "address"
				},
				{
					"internalType": "uint256",
					"name": "tokenId",
					"type": "uint256"
				},
				{
					"internalType": "address",
					"name": "owner",
					"type": "address"
				}
			],
			"name": "ERC721IncorrectOwner",
			"type": "error"
		},
		{
			"inputs": [
				{
					"internalType": "address",
					"name": "operator",
					"type": "address"
				},
				{
					"internalType": "uint256",
					"name": "tokenId",
					"type": "uint256"
				}
			],
			"name": "ERC721InsufficientApproval",
			"type": "error"
		},
		{
			"inputs": [
				{
					"internalType": "address",
					"name": "approver",
					"type": "address"
				}
			],
			"name": "ERC721InvalidApprover",
			"type": "error"
		},
		{
			"inputs": [
				{
					"internalType": "address",
					"name": "operator",
					"type": "address"
				}
			],
			"name": "ERC721InvalidOperator",
			"type": "error"
		},
		{
			"inputs": [
				{
					"internalType": "address",
					"name": "owner",
					"type": "address"
				}
			],
			"name": "ERC721InvalidOwner",
			"type": "error"
		},
		{
			"inputs": [
				{
					"internalType": "address",
					"name": "receiver",
					"type": "address"
				}
			],
			"name": "ERC721InvalidReceiver",
			"type": "error"
		},
		{
			"inputs": [
				{
					"internalType": "address",
					"name": "sender",
					"type": "address"
				}
			],
			"name": "ERC721InvalidSender",
			"type": "error"
		},
		{
			"inputs": [
				{
					"internalType": "uint256",
					"name": "tokenId",
					"type": "uint256"
				}
			],
			"name": "ERC721NonexistentToken",
			"type": "error"
		},
		{
			"anonymous": false,
			"inputs": [
				{
					"indexed": true,
					"internalType": "address",
					"name": "owner",
					"type": "address"
				},
				{
					"indexed": true,
					"internalType": "address",
					"name": "approved",
					"type": "address"
				},
				{
					"indexed": true,
					"internalType": "uint256",
					"name": "tokenId",
					"type": "uint256"
				}
			],
			"name": "Approval",
			"type": "event"
		},
		{
			"anonymous": false,
			"inputs": [
				{
					"indexed": true,
					"internalType": "address",
					"name": "owner",
					"type": "address"
				},
				{
					"indexed": true,
					"internalType": "address",
					"name": "operator",
					"type": "address"
				},
				{
					"indexed": false,
					"internalType": "bool",
					"name": "approved",
					"type": "bool"
				}
			],
			"name": "ApprovalForAll",
			"type": "event"
		},
		{
			"anonymous": false,
			"inputs": [
				{
					"indexed": true,
					"internalType": "address",
					"name": "from",
					"type": "address"
				},
				{
					"indexed": true,
					"internalType": "address",
					"name": "to",
					"type": "address"
				},
				{
					"indexed": true,
					"internalType": "uint256",
					"name": "tokenId",
					"type": "uint256"
				}
			],
			"name": "Transfer",
			"type": "event"
		},
		{
			"inputs": [
				{
					"internalType": "address",
					"name": "to",
					"type": "address"
				},
				{
					"internalType": "uint256",
					"name": "tokenId",
					"type": "uint256"
				}
			],
			"name": "approve",
			"outputs": [],
			"stateMutability": "nonpayable",
			"type": "function"
		},
		{
			"inputs": [
				{
					"internalType": "address",
					"name": "owner",
					"type": "address"
				}
			],
			"name": "balanceOf",
			"outputs": [
				{
					"internalType": "uint256",
					"name": "",
					"type": "uint256"
				}
			],
			"stateMutability": "view",
			"type": "function"
		},
		{
			"inputs": [
				{
					"internalType": "uint256",
					"name": "tokenId",
					"type": "uint256"
				}
			],
			"name": "getApproved",
			"outputs": [
				{
					"internalType": "address",
					"name": "",
					"type": "address"
				}
			],
			"stateMutability": "view",
			"type": "function"
		},
		{
			"inputs": [
				{
					"internalType": "address",
					"name": "owner",
					"type": "address"
				},
				{
					"internalType": "address",
					"name": "operator",
					"type": "address"
				}
			],
			"name": "isApprovedForAll",
			"outputs": [
				{
					"internalType": "bool",
					"name": "",
					"type": "bool"
				}
			],
			"stateMutability": "view",
			"type": "function"
		},
		{
			"inputs": [],
			"name": "name",
			"outputs": [
				{
					"internalType": "string",
					"name": "",
					"type": "string"
				}
			],
			"stateMutability": "view",
			"type": "function"
		},
		{
			"inputs": [
				{
					"internalType": "uint256",
					"name": "tokenId",
					"type": "uint256"
				}
			],
			"name": "ownerOf",
			"outputs": [
				{
					"internalType": "address",
					"name": "",
					"type": "address"
				}
			],
			"stateMutability": "view",
			"type": "function"
		},
		{
			"inputs": [
				{
					"internalType": "address",
					"name": "from",
					"type": "address"
				},
				{
					"internalType": "address",
					"name": "to",
					"type": "address"
				},
				{
					"internalType": "uint256",
					"name": "tokenId",
					"type": "uint256"
				}
			],
			"name": "safeTransferFrom",
			"outputs": [],
			"stateMutability": "nonpayable",
			"type": "function"
		},
		{
			"inputs": [
				{
					"internalType": "address",
					"name": "from",
					"type": "address"
				},
				{
					"internalType": "address",
					"name": "to",
					"type": "address"
				},
				{
					"internalType": "uint256",
					"name": "tokenId",
					"type": "uint256"
				},
				{
					"internalType": "bytes",
					"name": "data",
					"type": "bytes"
				}
			],
			"name": "safeTransferFrom",
			"outputs": [],
			"stateMutability": "nonpayable",
			"type": "function"
		},
		{
			"inputs": [
				{
					"internalType": "address",
					"name": "operator",
					"type": "address"
				},
				{
					"internalType": "bool",
					"name": "approved",
					"type": "bool"
				}
			],
			"name": "setApprovalForAll",
			"outputs": [],
			"stateMutability": "nonpayable",
			"type": "function"
		},
		{
			"inputs": [
				{
					"internalType": "bytes4",
					"name": "interfaceId",
					"type": "bytes4"
				}
			],
			"name": "supportsInterface",
			"outputs": [
				{
					"internalType": "bool",
					"name": "",
					"type": "bool"
				}
			],
			"stateMutability": "view",
			"type": "function"
		},
		{
			"inputs": [],
			"name": "symbol",
			"outputs": [
				{
					"internalType": "string",
					"name": "",
					"type": "string"
				}
			],
			"stateMutability": "view",
			"type": "function"
		},
		{
			"inputs": [
				{
					"internalType": "address",
					"name": "from",
					"type": "address"
				},
				{
					"internalType": "address",
					"name": "to",
					"type": "address"
				},
				{
					"internalType": "uint256",
					"name": "tokenId",
					"type": "uint256"
				}
			],
			"name": "transferFrom",
			"outputs": [],
			"stateMutability": "nonpayable",
			"type": "function"
		},
		{
			"inputs": [
				{
					"internalType": "string",
					"name": "_tokenUri",
					"type": "string"
				}
			],
			"name": "mint",
			"outputs": [],
			"stateMutability": "nonpayable",
			"type": "function"
		},
		{
			"inputs": [
				{
					"internalType": "uint256",
					"name": "_tokenId",
					"type": "uint256"
				}
			],
			"name": "tokenURI",
			"outputs": [
				{
					"internalType": "string",
					"name": "",
					"type": "string"
				}
			],
			"stateMutability": "view",
			"type": "function"
		}
	],
	"bytecode": "0x60806040523480156200001157600080fd5b506040518060400160405280600781526020017f4c656e644e4654000000000000000000000000000000000000000000000000008152506040518060400160405280600481526020017f4c454e440000000000000000000000000000000000000000000000000000000081525081600090816200008f919062000332565b508060019081620000a1919062000332565b505050600160068190555062000419565b600081519050919050565b7f4e487b7100000000000000000000000000000000000000000000000000000000600052604160045260246000fd5b7f4e487b7100000000000000000000000000000000000000000000000000000000600052602260045260246000fd5b600060028204905060018216806200013457607f821691505b6020821081036200014a5762000149620000ec565b5b50919050565b60008190508160005260206000209050919050565b60006020601f8301049050919050565b60008160020a8302905092915050565b600060088302620001b77fffffffffffffffffffffffffffffffffffffffffffffffffffffffffffffffff8262000175565b620001c3868362000175565b95508019841693508086168417925050509392505050565b6000819050919050565b6000819050919050565b6000620002106200020a6200020484620001db565b620001e5565b620001db565b9050919050565b6000819050919050565b6200022c83620001ef565b620002446200023b8262000217565b84845462000185565b825550505050565b600090565b6200025b6200024c565b6200026881848462000221565b505050565b5b8181101562000290576200028460008262000251565b6001810190506200026e565b5050565b601f821115620002df57620002a98162000150565b620002b48462000165565b81016020851015620002c4578190505b620002dc620002d38562000165565b8301826200026d565b50505b505050565b60008160020a8304905092915050565b60006200030760001984600802620002e4565b1980831691505092915050565b6000620003228383620002f4565b9150826002028217905092915050565b6200033d82620000b2565b67ffffffffffffffff811115620003595762000358620000bd565b5b6200036582546200011b565b6200037282828562000294565b600060209050601f831160018114620003aa576000841562000395578287015190505b620003a1858262000314565b86555062000411565b601f198416620003ba8662000150565b60005b82811015620003e457848901518255600182019150602085019450602081019050620003bd565b8683101562000404578489015162000400601f891682620002f4565b8355505b6001600288020188555050505b505050505050565b611fdf80620004296000396000f3fe608060405234801561001057600080fd5b5060043610610107576000357c01000000000000000000000000000000000000000000000000000000009004806370a08231116100a9578063b88d4fde11610083578063b88d4fde14610278578063c87b56dd14610294578063d85d3d27146102c4578063e985e9c5146102e057610107565b806370a082311461020e57806395d89b411461023e578063a22cb4651461025c57610107565b8063095ea7b3116100e5578063095ea7b31461018a57806323b872dd146101a657806342842e0e146101c25780636352211e146101de57610107565b806301ffc9a71461010c57806306fdde031461013c578063081812fc1461015a575b600080fd5b610126600480360381019061012191906114d3565b610310565b604051610133919061151b565b60405180910390f35b6101446103f2565b60405161015191906115c6565b60405180910390f35b610174600480360381019061016f919061161e565b610484565b604051610181919061168c565b60405180910390f35b6101a4600480360381019061019f91906116d3565b6104a0565b005b6101c060048036038101906101bb9190611713565b6104b6565b005b6101dc60048036038101906101d79190611713565b6105b8565b005b6101f860048036038101906101f3919061161e565b6105d8565b604051610205919061168c565b60405180910390f35b61022860048036038101906102239190611766565b6105ea565b60405161023591906117a2565b60405180910390f35b6102466106a4565b60405161025391906115c6565b60405180910390f35b610276600480360381019061027191906117e9565b610736565b005b610292600480360381019061028d919061195e565b61074c565b005b6102ae60048036038101906102a9919061161e565b610769565b6040516102bb91906115c6565b60405180910390f35b6102de60048036038101906102d99190611a82565b61080e565b005b6102fa60048036038101906102f59190611acb565b610858565b604051610307919061151b565b60405180910390f35b60007f80ac58cd000000000000000000000000000000000000000000000000000000007bffffffffffffffffffffffffffffffffffffffffffffffffffffffff1916827bffffffffffffffffffffffffffffffffffffffffffffffffffffffff191614806103db57507f5b5e139f000000000000000000000000000000000000000000000000000000007bffffffffffffffffffffffffffffffffffffffffffffffffffffffff1916827bffffffffffffffffffffffffffffffffffffffffffffffffffffffff1916145b806103eb57506103ea826108ec565b5b9050919050565b60606000805461040190611b3a565b80601f016020809104026020016040519081016040528092919081815260200182805461042d90611b3a565b801561047a5780601f1061044f5761010080835404028352916020019161047a565b820191906000526020600020905b81548152906001019060200180831161045d57829003601f168201915b5050505050905090565b600061048f82610956565b50610499826109de565b9050919050565b6104b282826104ad610a1b565b610a23565b5050565b600073ffffffffffffffffffffffffffffffffffffffff168273ffffffffffffffffffffffffffffffffffffffff16036105285760006040517f64a0ae9200000000000000000000000000000000000000000000000000000000815260040161051f919061168c565b60405180910390fd5b600061053c8383610537610a1b565b610a35565b90508373ffffffffffffffffffffffffffffffffffffffff168173ffffffffffffffffffffffffffffffffffffffff16146105b2578382826040517f64283d7b0000000000000000000000000000000000000000000000000000000081526004016105a993929190611b6b565b60405180910390fd5b50505050565b6105d38383836040518060200160405280600081525061074c565b505050565b60006105e382610956565b9050919050565b60008073ffffffffffffffffffffffffffffffffffffffff168273ffffffffffffffffffffffffffffffffffffffff160361065d5760006040517f89c62b64000000000000000000000000000000000000000000000000000000008152600401610654919061168c565b60405180910390fd5b600360008373ffffffffffffffffffffffffffffffffffffffff1673ffffffffffffffffffffffffffffffffffffffff168152602001908152602001600020549050919050565b6060600180546106b390611b3a565b80601f01602080910402602001604051908101604052809291908181526020018280546106df90611b3a565b801561072c5780601f106107015761010080835404028352916020019161072c565b820191906000526020600020905b81548152906001019060200180831161070f57829003601f168201915b5050505050905090565b610748610741610a1b565b8383610c4f565b5050565b6107578484846104b6565b61076384848484610dbe565b50505050565b606060076000838152602001908152602001600020805461078990611b3a565b80601f01602080910402602001604051908101604052809291908181526020018280546107b590611b3a565b80156108025780601f106107d757610100808354040283529160200191610802565b820191906000526020600020905b8154815290600101906020018083116107e557829003601f168201915b50505050509050919050565b8060076000600654815260200190815260200160002090816108309190611d54565b5061083d33600654610fad565b6006600081548092919061085090611e55565b919050555050565b6000600560008473ffffffffffffffffffffffffffffffffffffffff1673ffffffffffffffffffffffffffffffffffffffff16815260200190815260200160002060008373ffffffffffffffffffffffffffffffffffffffff1673ffffffffffffffffffffffffffffffffffffffff16815260200190815260200160002060009054906101000a900460ff16905092915050565b60007f01ffc9a7000000000000000000000000000000000000000000000000000000007bffffffffffffffffffffffffffffffffffffffffffffffffffffffff1916827bffffffffffffffffffffffffffffffffffffffffffffffffffffffff1916149050919050565b60008061096283610fcb565b9050600073ffffffffffffffffffffffffffffffffffffffff168173ffffffffffffffffffffffffffffffffffffffff16036109d557826040517f7e2732890000000000000000000000000000000000000000000000000000000081526004016109cc91906117a2565b60405180910390fd5b80915050919050565b60006004600083815260200190815260200160002060009054906101000a900473ffffffffffffffffffffffffffffffffffffffff169050919050565b600033905090565b610a308383836001611008565b505050565b600080610a4184610fcb565b9050600073ffffffffffffffffffffffffffffffffffffffff168373ffffffffffffffffffffffffffffffffffffffff1614610a8357610a828184866111cd565b5b600073ffffffffffffffffffffffffffffffffffffffff168173ffffffffffffffffffffffffffffffffffffffff1614610b1457610ac5600085600080611008565b6001600360008373ffffffffffffffffffffffffffffffffffffffff1673ffffffffffffffffffffffffffffffffffffffff168152602001908152602001600020600082825403925050819055505b600073ffffffffffffffffffffffffffffffffffffffff168573ffffffffffffffffffffffffffffffffffffffff1614610b97576001600360008773ffffffffffffffffffffffffffffffffffffffff1673ffffffffffffffffffffffffffffffffffffffff168152602001908152602001600020600082825401925050819055505b846002600086815260200190815260200160002060006101000a81548173ffffffffffffffffffffffffffffffffffffffff021916908373ffffffffffffffffffffffffffffffffffffffff160217905550838573ffffffffffffffffffffffffffffffffffffffff168273ffffffffffffffffffffffffffffffffffffffff167fddf252ad1be2c89b69c2b068fc378daa952ba7f163c4a11628f55a4df523b3ef60405160405180910390a4809150509392505050565b600073ffffffffffffffffffffffffffffffffffffffff168273ffffffffffffffffffffffffffffffffffffffff1603610cc057816040517f5b08ba18000000000000000000000000000000000000000000000000000000008152600401610cb7919061168c565b60405180910390fd5b80600560008573ffffffffffffffffffffffffffffffffffffffff1673ffffffffffffffffffffffffffffffffffffffff16815260200190815260200160002060008473ffffffffffffffffffffffffffffffffffffffff1673ffffffffffffffffffffffffffffffffffffffff16815260200190815260200160002060006101000a81548160ff0219169083151502179055508173ffffffffffffffffffffffffffffffffffffffff168373ffffffffffffffffffffffffffffffffffffffff167f17307eab39ab6107e8899845ad3d59bd9653f200f220920489ca2b5937696c3183604051610db1919061151b565b60405180910390a3505050565b60008373ffffffffffffffffffffffffffffffffffffffff163b1115610fa7578273ffffffffffffffffffffffffffffffffffffffff1663150b7a02610e02610a1b565b8685856040518563ffffffff167c0100000000000000000000000000000000000000000000000000000000028152600401610e409493929190611ef2565b6020604051808303816000875af1925050508015610e7c57506040513d601f19601f82011682018060405250810190610e799190611f53565b60015b610f00573d8060008114610eac576040519150601f19603f3d011682016040523d82523d6000602084013e610eb1565b606091505b506000815103610ef857836040517f64a0ae92000000000000000000000000000000000000000000000000000000008152600401610eef919061168c565b60405180910390fd5b805181602001fd5b63150b7a027c0100000000000000000000000000000000000000000000000000000000027bffffffffffffffffffffffffffffffffffffffffffffffffffffffff1916817bffffffffffffffffffffffffffffffffffffffffffffffffffffffff191614610fa557836040517f64a0ae92000000000000000000000000000000000000000000000000000000008152600401610f9c919061168c565b60405180910390fd5b505b50505050565b610fc7828260405180602001604052806000815250611291565b5050565b60006002600083815260200190815260200160002060009054906101000a900473ffffffffffffffffffffffffffffffffffffffff169050919050565b80806110415750600073ffffffffffffffffffffffffffffffffffffffff168273ffffffffffffffffffffffffffffffffffffffff1614155b1561117557600061105184610956565b9050600073ffffffffffffffffffffffffffffffffffffffff168373ffffffffffffffffffffffffffffffffffffffff16141580156110bc57508273ffffffffffffffffffffffffffffffffffffffff168173ffffffffffffffffffffffffffffffffffffffff1614155b80156110cf57506110cd8184610858565b155b1561111157826040517fa9fbf51f000000000000000000000000000000000000000000000000000000008152600401611108919061168c565b60405180910390fd5b811561117357838573ffffffffffffffffffffffffffffffffffffffff168273ffffffffffffffffffffffffffffffffffffffff167f8c5be1e5ebec7d5bd14f71427d1e84f3dd0314c0f7b2291e5b200ac8c7c3b92560405160405180910390a45b505b836004600085815260200190815260200160002060006101000a81548173ffffffffffffffffffffffffffffffffffffffff021916908373ffffffffffffffffffffffffffffffffffffffff16021790555050505050565b6111d88383836112ad565b61128c57600073ffffffffffffffffffffffffffffffffffffffff168373ffffffffffffffffffffffffffffffffffffffff160361124d57806040517f7e27328900000000000000000000000000000000000000000000000000000000815260040161124491906117a2565b60405180910390fd5b81816040517f177e802f000000000000000000000000000000000000000000000000000000008152600401611283929190611f80565b60405180910390fd5b505050565b61129b838361136e565b6112a86000848484610dbe565b505050565b60008073ffffffffffffffffffffffffffffffffffffffff168373ffffffffffffffffffffffffffffffffffffffff161415801561136557508273ffffffffffffffffffffffffffffffffffffffff168473ffffffffffffffffffffffffffffffffffffffff16148061132657506113258484610858565b5b8061136457508273ffffffffffffffffffffffffffffffffffffffff1661134c836109de565b73ffffffffffffffffffffffffffffffffffffffff16145b5b90509392505050565b600073ffffffffffffffffffffffffffffffffffffffff168273ffffffffffffffffffffffffffffffffffffffff16036113e05760006040517f64a0ae920000000000000000000000000000000000000000000000000000000081526004016113d7919061168c565b60405180910390fd5b60006113ee83836000610a35565b9050600073ffffffffffffffffffffffffffffffffffffffff168173ffffffffffffffffffffffffffffffffffffffff16146114625760006040517f73c6ac6e000000000000000000000000000000000000000000000000000000008152600401611459919061168c565b60405180910390fd5b505050565b6000604051905090565b600080fd5b600080fd5b60007fffffffff0000000000000000000000000000000000000000000000000000000082169050919050565b6114b08161147b565b81146114bb57600080fd5b50565b6000813590506114cd816114a7565b92915050565b6000602082840312156114e9576114e8611471565b5b60006114f7848285016114be565b91505092915050565b60008115159050919050565b61151581611500565b82525050565b6000602082019050611530600083018461150c565b92915050565b600081519050919050565b600082825260208201905092915050565b60005b83811015611570578082015181840152602081019050611555565b60008484015250505050565b6000601f19601f8301169050919050565b600061159882611536565b6115a28185611541565b93506115b2818560208601611552565b6115bb8161157c565b840191505092915050565b600060208201905081810360008301526115e0818461158d565b905092915050565b6000819050919050565b6115fb816115e8565b811461160657600080fd5b50565b600081359050611618816115f2565b92915050565b60006020828403121561163457611633611471565b5b600061164284828501611609565b91505092915050565b600073ffffffffffffffffffffffffffffffffffffffff82169050919050565b60006116768261164b565b9050919050565b6116868161166b565b82525050565b60006020820190506116a1600083018461167d565b92915050565b6116b08161166b565b81146116bb57600080fd5b50565b6000813590506116cd816116a7565b92915050565b600080604083850312156116ea576116e9611471565b5b60006116f8858286016116be565b925050602061170985828601611609565b9150509250929050565b60008060006060848603121561172c5761172b611471565b5b600061173a868287016116be565b935050602061174b868287016116be565b925050604061175c86828701611609565b9150509250925092565b60006020828403121561177c5761177b611471565b5b600061178a848285016116be565b91505092915050565b61179c816115e8565b82525050565b60006020820190506117b76000830184611793565b92915050565b6117c681611500565b81146117d157600080fd5b50565b6000813590506117e3816117bd565b92915050565b60008060408385031215611800576117ff611471565b5b600061180e858286016116be565b925050602061181f858286016117d4565b9150509250929050565b600080fd5b600080fd5b7f4e487b7100000000000000000000000000000000000000000000000000000000600052604160045260246000fd5b61186b8261157c565b810181811067ffffffffffffffff8211171561188a57611889611833565b5b80604052505050565b600061189d611467565b90506118a98282611862565b919050565b600067ffffffffffffffff8211156118c9576118c8611833565b5b6118d28261157c565b9050602081019050919050565b82818337600083830152505050565b60006119016118fc846118ae565b611893565b90508281526020810184848401111561191d5761191c61182e565b5b6119288482856118df565b509392505050565b600082601f83011261194557611944611829565b5b81356119558482602086016118ee565b91505092915050565b6000806000806080858703121561197857611977611471565b5b6000611986878288016116be565b9450506020611997878288016116be565b93505060406119a887828801611609565b925050606085013567ffffffffffffffff8111156119c9576119c8611476565b5b6119d587828801611930565b91505092959194509250565b600067ffffffffffffffff8211156119fc576119fb611833565b5b611a058261157c565b9050602081019050919050565b6000611a25611a20846119e1565b611893565b905082815260208101848484011115611a4157611a4061182e565b5b611a4c8482856118df565b509392505050565b600082601f830112611a6957611a68611829565b5b8135611a79848260208601611a12565b91505092915050565b600060208284031215611a9857611a97611471565b5b600082013567ffffffffffffffff811115611ab657611ab5611476565b5b611ac284828501611a54565b91505092915050565b60008060408385031215611ae257611ae1611471565b5b6000611af0858286016116be565b9250506020611b01858286016116be565b9150509250929050565b7f4e487b7100000000000000000000000000000000000000000000000000000000600052602260045260246000fd5b60006002820490506001821680611b5257607f821691505b602082108103611b6557611b64611b0b565b5b50919050565b6000606082019050611b80600083018661167d565b611b8d6020830185611793565b611b9a604083018461167d565b949350505050565b60008190508160005260206000209050919050565b60006020601f8301049050919050565b60008160020a8302905092915050565b600060088302611c077fffffffffffffffffffffffffffffffffffffffffffffffffffffffffffffffff82611bc7565b611c118683611bc7565b95508019841693508086168417925050509392505050565b6000819050919050565b6000611c4e611c49611c44846115e8565b611c29565b6115e8565b9050919050565b6000819050919050565b611c6883611c33565b611c7c611c7482611c55565b848454611bd7565b825550505050565b600090565b611c91611c84565b611c9c818484611c5f565b505050565b5b81811015611cc057611cb5600082611c89565b600181019050611ca2565b5050565b601f821115611d0557611cd681611ba2565b611cdf84611bb7565b81016020851015611cee578190505b611d02611cfa85611bb7565b830182611ca1565b50505b505050565b60008160020a8304905092915050565b6000611d2b60001984600802611d0a565b1980831691505092915050565b6000611d448383611d1a565b9150826002028217905092915050565b611d5d82611536565b67ffffffffffffffff811115611d7657611d75611833565b5b611d808254611b3a565b611d8b828285611cc4565b600060209050601f831160018114611dbe5760008415611dac578287015190505b611db68582611d38565b865550611e1e565b601f198416611dcc86611ba2565b60005b82811015611df457848901518255600182019150602085019450602081019050611dcf565b86831015611e115784890151611e0d601f891682611d1a565b8355505b6001600288020188555050505b505050505050565b7f4e487b7100000000000000000000000000000000000000000000000000000000600052601160045260246000fd5b6000611e60826115e8565b91507fffffffffffffffffffffffffffffffffffffffffffffffffffffffffffffffff8203611e9257611e91611e26565b5b600182019050919050565b600081519050919050565b600082825260208201905092915050565b6000611ec482611e9d565b611ece8185611ea8565b9350611ede818560208601611552565b611ee78161157c565b840191505092915050565b6000608082019050611f07600083018761167d565b611f14602083018661167d565b611f216040830185611793565b8181036060830152611f338184611eb9565b905095945050505050565b600081519050611f4d816114a7565b92915050565b600060208284031215611f6957611f68611471565b5b6000611f7784828501611f3e565b91505092915050565b6000604082019050611f95600083018561167d565b611fa26020830184611793565b939250505056fea2646970667358221220a9c080e28e4d2c6fdb831a5bbb3b2046753102749f4257234ac2eace504fbb3764736f6c63430008150033",
	"immutableReferences": {},
	"source": "// SPDX-License-Identifier: MIT\npragma solidity ^0.8.0;\n\nimport {ERC721} from \"@openzeppelin/contracts/token/ERC721/ERC721.sol\";\n\ncontract LendNFT is ERC721 {\n    // Used as a counter for token IDs\n    uint256 private s_tokenCounter;\n    // Store token ID URIs\n    mapping(uint256 => string) private s_tokenIdToUri;\n\n    constructor() ERC721(\"LendNFT\", \"LEND\") {\n        s_tokenCounter = 1;\n    }\n\n    // ALlows minters to choose their own token URI, mint them the current token ID and increment it by 1\n    function mint(string memory _tokenUri) public {\n        s_tokenIdToUri[s_tokenCounter] = _tokenUri;\n        _safeMint(msg.sender, s_tokenCounter);\n        s_tokenCounter++;\n    }\n\n    function tokenURI(\n        uint256 _tokenId\n    ) public view override returns (string memory) {\n        return s_tokenIdToUri[_tokenId];\n    }\n}\n",
	"sourcePath": "/Users/antares/repos/_web3/borrow-lend-nfts/truffle/contracts/LendNFT.sol",
	"compiler": {
		"name": "solc",
		"version": "0.8.21+commit.d9974bed.Emscripten.clang"
	},
	"schemaVersion": "3.4.16",
	"updatedAt": "2023-10-21T05:38:34.734Z",
	"devdoc": {
		"errors": {
			"ERC721IncorrectOwner(address,uint256,address)": [
				{
					"details": "Indicates an error related to the ownership over a particular token. Used in transfers.",
					"params": {
						"owner": "Address of the current owner of a token.",
						"sender": "Address whose tokens are being transferred.",
						"tokenId": "Identifier number of a token."
					}
				}
			],
			"ERC721InsufficientApproval(address,uint256)": [
				{
					"details": "Indicates a failure with the `operator`s approval. Used in transfers.",
					"params": {
						"operator": "Address that may be allowed to operate on tokens without being their owner.",
						"tokenId": "Identifier number of a token."
					}
				}
			],
			"ERC721InvalidApprover(address)": [
				{
					"details": "Indicates a failure with the `approver` of a token to be approved. Used in approvals.",
					"params": {
						"approver": "Address initiating an approval operation."
					}
				}
			],
			"ERC721InvalidOperator(address)": [
				{
					"details": "Indicates a failure with the `operator` to be approved. Used in approvals.",
					"params": {
						"operator": "Address that may be allowed to operate on tokens without being their owner."
					}
				}
			],
			"ERC721InvalidOwner(address)": [
				{
					"details": "Indicates that an address can't be an owner. For example, `address(0)` is a forbidden owner in EIP-20. Used in balance queries.",
					"params": {
						"owner": "Address of the current owner of a token."
					}
				}
			],
			"ERC721InvalidReceiver(address)": [
				{
					"details": "Indicates a failure with the token `receiver`. Used in transfers.",
					"params": {
						"receiver": "Address to which tokens are being transferred."
					}
				}
			],
			"ERC721InvalidSender(address)": [
				{
					"details": "Indicates a failure with the token `sender`. Used in transfers.",
					"params": {
						"sender": "Address whose tokens are being transferred."
					}
				}
			],
			"ERC721NonexistentToken(uint256)": [
				{
					"details": "Indicates a `tokenId` whose `owner` is the zero address.",
					"params": {
						"tokenId": "Identifier number of a token."
					}
				}
			]
		},
		"events": {
			"Approval(address,address,uint256)": {
				"details": "Emitted when `owner` enables `approved` to manage the `tokenId` token."
			},
			"ApprovalForAll(address,address,bool)": {
				"details": "Emitted when `owner` enables or disables (`approved`) `operator` to manage all of its assets."
			},
			"Transfer(address,address,uint256)": {
				"details": "Emitted when `tokenId` token is transferred from `from` to `to`."
			}
		},
		"kind": "dev",
		"methods": {
			"approve(address,uint256)": {
				"details": "See {IERC721-approve}."
			},
			"balanceOf(address)": {
				"details": "See {IERC721-balanceOf}."
			},
			"getApproved(uint256)": {
				"details": "See {IERC721-getApproved}."
			},
			"isApprovedForAll(address,address)": {
				"details": "See {IERC721-isApprovedForAll}."
			},
			"name()": {
				"details": "See {IERC721Metadata-name}."
			},
			"ownerOf(uint256)": {
				"details": "See {IERC721-ownerOf}."
			},
			"safeTransferFrom(address,address,uint256)": {
				"details": "See {IERC721-safeTransferFrom}."
			},
			"safeTransferFrom(address,address,uint256,bytes)": {
				"details": "See {IERC721-safeTransferFrom}."
			},
			"setApprovalForAll(address,bool)": {
				"details": "See {IERC721-setApprovalForAll}."
			},
			"supportsInterface(bytes4)": {
				"details": "See {IERC165-supportsInterface}."
			},
			"symbol()": {
				"details": "See {IERC721Metadata-symbol}."
			},
			"transferFrom(address,address,uint256)": {
				"details": "See {IERC721-transferFrom}."
			}
		},
		"version": 1
	},
	"userdoc": {
		"kind": "user",
		"methods": {},
		"version": 1
	}
}