{
	"contractName": "Vault",
	"abi": [
		{
			"inputs": [],
			"stateMutability": "payable",
			"type": "constructor"
		},
		{
			"inputs": [],
			"name": "Vault__InvalidAmountSent",
			"type": "error"
		},
		{
			"inputs": [],
			"name": "Vault__InvalidLoanAmount",
			"type": "error"
		},
		{
			"inputs": [],
			"name": "Vault__LiquidityTooLow",
			"type": "error"
		},
		{
			"inputs": [],
			"name": "Vault__OnlyAdmin",
			"type": "error"
		},
		{
			"inputs": [],
			"name": "Vault__OnlyTokenHolder",
			"type": "error"
		},
		{
			"inputs": [],
			"name": "Vault__TokenAlreadyDeposited",
			"type": "error"
		},
		{
			"inputs": [],
			"name": "Vault__TokenLoanMustBeActive",
			"type": "error"
		},
		{
			"inputs": [],
			"name": "Vault__TokenLoanMustBeEmpty",
			"type": "error"
		},
		{
			"inputs": [],
			"name": "Vault__TokenLoanMustNotBeEmpty",
			"type": "error"
		},
		{
			"inputs": [],
			"name": "Vault__TokenNotDeposited",
			"type": "error"
		},
		{
			"inputs": [],
			"name": "Vault__TokenValueTooLowToBorrow",
			"type": "error"
		},
		{
			"inputs": [],
			"name": "Vault__TransferFailed",
			"type": "error"
		},
		{
			"anonymous": false,
			"inputs": [
				{
					"indexed": false,
					"internalType": "uint256",
					"name": "amount",
					"type": "uint256"
				}
			],
			"name": "LiquidityProvided",
			"type": "event"
		},
		{
			"anonymous": false,
			"inputs": [
				{
					"indexed": true,
					"internalType": "address",
					"name": "user",
					"type": "address"
				},
				{
					"indexed": false,
					"internalType": "uint256",
					"name": "amount",
					"type": "uint256"
				}
			],
			"name": "LoanBorrowed",
			"type": "event"
		},
		{
			"anonymous": false,
			"inputs": [
				{
					"indexed": true,
					"internalType": "address",
					"name": "user",
					"type": "address"
				},
				{
					"indexed": false,
					"internalType": "uint256",
					"name": "amount",
					"type": "uint256"
				}
			],
			"name": "LoanRepaid",
			"type": "event"
		},
		{
			"anonymous": false,
			"inputs": [
				{
					"indexed": true,
					"internalType": "address",
					"name": "user",
					"type": "address"
				},
				{
					"indexed": true,
					"internalType": "address",
					"name": "collection",
					"type": "address"
				},
				{
					"indexed": true,
					"internalType": "uint256",
					"name": "tokenId",
					"type": "uint256"
				}
			],
			"name": "NftDeposited",
			"type": "event"
		},
		{
			"anonymous": false,
			"inputs": [
				{
					"indexed": true,
					"internalType": "address",
					"name": "user",
					"type": "address"
				},
				{
					"indexed": true,
					"internalType": "address",
					"name": "collection",
					"type": "address"
				},
				{
					"indexed": true,
					"internalType": "uint256",
					"name": "tokenId",
					"type": "uint256"
				},
				{
					"indexed": false,
					"internalType": "uint256",
					"name": "amountOwed",
					"type": "uint256"
				}
			],
			"name": "NftLiquidated",
			"type": "event"
		},
		{
			"anonymous": false,
			"inputs": [
				{
					"indexed": false,
					"internalType": "uint256",
					"name": "value",
					"type": "uint256"
				}
			],
			"name": "NftValueUpdated",
			"type": "event"
		},
		{
			"anonymous": false,
			"inputs": [
				{
					"indexed": true,
					"internalType": "address",
					"name": "user",
					"type": "address"
				},
				{
					"indexed": true,
					"internalType": "address",
					"name": "collection",
					"type": "address"
				},
				{
					"indexed": true,
					"internalType": "uint256",
					"name": "tokenId",
					"type": "uint256"
				}
			],
			"name": "NftWithdrawn",
			"type": "event"
		},
		{
			"anonymous": false,
			"inputs": [
				{
					"indexed": false,
					"internalType": "address",
					"name": "withdrawer",
					"type": "address"
				},
				{
					"indexed": false,
					"internalType": "uint256",
					"name": "amount",
					"type": "uint256"
				}
			],
			"name": "Withdraw",
			"type": "event"
		},
		{
			"stateMutability": "payable",
			"type": "fallback"
		},
		{
			"inputs": [
				{
					"internalType": "address",
					"name": "",
					"type": "address"
				},
				{
					"internalType": "address",
					"name": "",
					"type": "address"
				},
				{
					"internalType": "uint256",
					"name": "",
					"type": "uint256"
				},
				{
					"internalType": "bytes",
					"name": "",
					"type": "bytes"
				}
			],
			"name": "onERC721Received",
			"outputs": [
				{
					"internalType": "bytes4",
					"name": "",
					"type": "bytes4"
				}
			],
			"stateMutability": "nonpayable",
			"type": "function"
		},
		{
			"stateMutability": "payable",
			"type": "receive"
		},
		{
			"inputs": [],
			"name": "provideLiquidity",
			"outputs": [],
			"stateMutability": "payable",
			"type": "function"
		},
		{
			"inputs": [
				{
					"internalType": "uint256",
					"name": "_nftValue",
					"type": "uint256"
				}
			],
			"name": "setNftValue",
			"outputs": [],
			"stateMutability": "nonpayable",
			"type": "function"
		},
		{
			"inputs": [],
			"name": "withdraw",
			"outputs": [],
			"stateMutability": "nonpayable",
			"type": "function"
		},
		{
			"inputs": [
				{
					"internalType": "address",
					"name": "_collection",
					"type": "address"
				},
				{
					"internalType": "uint256",
					"name": "_tokenId",
					"type": "uint256"
				}
			],
			"name": "depositNft",
			"outputs": [],
			"stateMutability": "nonpayable",
			"type": "function"
		},
		{
			"inputs": [
				{
					"internalType": "address",
					"name": "_collection",
					"type": "address"
				},
				{
					"internalType": "uint256",
					"name": "_tokenId",
					"type": "uint256"
				}
			],
			"name": "borrowLoan",
			"outputs": [],
			"stateMutability": "nonpayable",
			"type": "function"
		},
		{
			"inputs": [
				{
					"internalType": "address",
					"name": "_collection",
					"type": "address"
				},
				{
					"internalType": "uint256",
					"name": "_tokenId",
					"type": "uint256"
				}
			],
			"name": "repayLoan",
			"outputs": [],
			"stateMutability": "payable",
			"type": "function"
		},
		{
			"inputs": [
				{
					"internalType": "address",
					"name": "_collection",
					"type": "address"
				},
				{
					"internalType": "uint256",
					"name": "_tokenId",
					"type": "uint256"
				}
			],
			"name": "withdrawNft",
			"outputs": [],
			"stateMutability": "nonpayable",
			"type": "function"
		},
		{
			"inputs": [
				{
					"internalType": "address",
					"name": "_collection",
					"type": "address"
				},
				{
					"internalType": "uint256",
					"name": "_tokenId",
					"type": "uint256"
				}
			],
			"name": "liquidateNft",
			"outputs": [],
			"stateMutability": "payable",
			"type": "function"
		},
		{
			"inputs": [],
			"name": "getAdmin",
			"outputs": [
				{
					"internalType": "address",
					"name": "",
					"type": "address"
				}
			],
			"stateMutability": "view",
			"type": "function"
		},
		{
			"inputs": [],
			"name": "getCurrentNftValue",
			"outputs": [
				{
					"internalType": "uint256",
					"name": "",
					"type": "uint256"
				}
			],
			"stateMutability": "view",
			"type": "function"
		},
		{
			"inputs": [
				{
					"internalType": "address",
					"name": "_depositor",
					"type": "address"
				},
				{
					"internalType": "address",
					"name": "_collection",
					"type": "address"
				},
				{
					"internalType": "uint256",
					"name": "_tokenId",
					"type": "uint256"
				}
			],
			"name": "getUserTokenDeposit",
			"outputs": [
				{
					"internalType": "bool",
					"name": "",
					"type": "bool"
				}
			],
			"stateMutability": "view",
			"type": "function"
		},
		{
			"inputs": [
				{
					"internalType": "address",
					"name": "_depositor",
					"type": "address"
				},
				{
					"internalType": "address",
					"name": "_collection",
					"type": "address"
				},
				{
					"internalType": "uint256",
					"name": "_tokenId",
					"type": "uint256"
				}
			],
			"name": "getUserLoan",
			"outputs": [
				{
					"components": [
						{
							"internalType": "uint256",
							"name": "amount",
							"type": "uint256"
						},
						{
							"internalType": "uint256",
							"name": "nftValueAtTimeOfBorrow",
							"type": "uint256"
						},
						{
							"internalType": "bool",
							"name": "active",
							"type": "bool"
						}
					],
					"internalType": "struct Vault.Loan",
					"name": "",
					"type": "tuple"
				}
			],
			"stateMutability": "view",
			"type": "function"
		}
	],
	"bytecode": "0x6080604052336000806101000a81548173ffffffffffffffffffffffffffffffffffffffff021916908373ffffffffffffffffffffffffffffffffffffffff16021790555067016345785d8a000060018190555061202f806100626000396000f3fe6080604052600436106100e3576000357c0100000000000000000000000000000000000000000000000000000000900480636e9960c31161009c578063a72e2cd611610076578063a72e2cd61461026f578063c5c65fc914610298578063d137aa77146102b4578063d8fc6519146102dd576100f2565b80636e9960c3146101eb578063908eb60a1461021657806393a595f514610253576100f2565b8063150b7a02146100fc578063176b990f146101395780632ab4aff9146101645780633ccfd60b146101a1578063456db947146101b857806360c97b22146101e1576100f2565b366100f2576100f0610306565b005b6100fa610306565b005b34801561010857600080fd5b50610123600480360381019061011e9190611ad9565b61033f565b6040516101309190611b97565b60405180910390f35b34801561014557600080fd5b5061014e61036f565b60405161015b9190611bc1565b60405180910390f35b34801561017057600080fd5b5061018b60048036038101906101869190611bdc565b610379565b6040516101989190611c9b565b60405180910390f35b3480156101ad57600080fd5b506101b6610451565b005b3480156101c457600080fd5b506101df60048036038101906101da9190611cb6565b610613565b005b6101e9610306565b005b3480156101f757600080fd5b5061020061097b565b60405161020d9190611d05565b60405180910390f35b34801561022257600080fd5b5061023d60048036038101906102389190611bdc565b6109a4565b60405161024a9190611d2f565b60405180910390f35b61026d60048036038101906102689190611cb6565b610a4a565b005b34801561027b57600080fd5b5061029660048036038101906102919190611cb6565b610cd0565b005b6102b260048036038101906102ad9190611cb6565b611021565b005b3480156102c057600080fd5b506102db60048036038101906102d69190611d4a565b61146e565b005b3480156102e957600080fd5b5061030460048036038101906102ff9190611cb6565b611534565b005b7fce3cb3e333b281be34fbd7d44697fb13524438a59700230949b94ae0701339c5346040516103359190611bc1565b60405180910390a1565b600063150b7a027c0100000000000000000000000000000000000000000000000000000000029050949350505050565b6000600154905090565b6103816118c8565b600360008573ffffffffffffffffffffffffffffffffffffffff1673ffffffffffffffffffffffffffffffffffffffff16815260200190815260200160002060008473ffffffffffffffffffffffffffffffffffffffff1673ffffffffffffffffffffffffffffffffffffffff168152602001908152602001600020600083815260200190815260200160002060405180606001604052908160008201548152602001600182015481526020016002820160009054906101000a900460ff16151515158152505090509392505050565b60008054906101000a900473ffffffffffffffffffffffffffffffffffffffff1673ffffffffffffffffffffffffffffffffffffffff163373ffffffffffffffffffffffffffffffffffffffff16146104d6576040517f2c74b59800000000000000000000000000000000000000000000000000000000815260040160405180910390fd5b60003073ffffffffffffffffffffffffffffffffffffffff1631905060008060009054906101000a900473ffffffffffffffffffffffffffffffffffffffff1673ffffffffffffffffffffffffffffffffffffffff168260405161053990611da8565b60006040518083038185875af1925050503d8060008114610576576040519150601f19603f3d011682016040523d82523d6000602084013e61057b565b606091505b50509050806105b6576040517f7d69c34b00000000000000000000000000000000000000000000000000000000815260040160405180910390fd5b7f884edad9ce6fa2440d8a54cc123490eb96d2768479d49ff9c7366125a942436460008054906101000a900473ffffffffffffffffffffffffffffffffffffffff1683604051610607929190611dbd565b60405180910390a15050565b8181600260003373ffffffffffffffffffffffffffffffffffffffff1673ffffffffffffffffffffffffffffffffffffffff16815260200190815260200160002060008373ffffffffffffffffffffffffffffffffffffffff1673ffffffffffffffffffffffffffffffffffffffff168152602001908152602001600020600082815260200190815260200160002060009054906101000a900460ff166106e6576040517f931d110100000000000000000000000000000000000000000000000000000000815260040160405180910390fd5b6000600360003373ffffffffffffffffffffffffffffffffffffffff1673ffffffffffffffffffffffffffffffffffffffff16815260200190815260200160002060008673ffffffffffffffffffffffffffffffffffffffff1673ffffffffffffffffffffffffffffffffffffffff168152602001908152602001600020600085815260200190815260200160002090508060020160009054906101000a900460ff166107bf576040517f4c65df5500000000000000000000000000000000000000000000000000000000815260040160405180910390fd5b60008160000154146107fc576040517ef2ccf000000000000000000000000000000000000000000000000000000000815260040160405180910390fd5b600081600101549050600060646050836108169190611e15565b6108209190611e86565b9050808360000181905550803073ffffffffffffffffffffffffffffffffffffffff1631101561087c576040517fa7ef5abe00000000000000000000000000000000000000000000000000000000815260040160405180910390fd5b60003373ffffffffffffffffffffffffffffffffffffffff1684600001546040516108a690611da8565b60006040518083038185875af1925050503d80600081146108e3576040519150601f19603f3d011682016040523d82523d6000602084013e6108e8565b606091505b5050905080610923576040517f7d69c34b00000000000000000000000000000000000000000000000000000000815260040160405180910390fd5b3373ffffffffffffffffffffffffffffffffffffffff167ffb8ea5178ac89ff9d832e8c9c1b977ca7ab31f52ac7a4179f2e2e065b093565b836040516109699190611bc1565b60405180910390a25050505050505050565b60008060009054906101000a900473ffffffffffffffffffffffffffffffffffffffff16905090565b6000600260008573ffffffffffffffffffffffffffffffffffffffff1673ffffffffffffffffffffffffffffffffffffffff16815260200190815260200160002060008473ffffffffffffffffffffffffffffffffffffffff1673ffffffffffffffffffffffffffffffffffffffff168152602001908152602001600020600083815260200190815260200160002060009054906101000a900460ff1690509392505050565b8181600260003373ffffffffffffffffffffffffffffffffffffffff1673ffffffffffffffffffffffffffffffffffffffff16815260200190815260200160002060008373ffffffffffffffffffffffffffffffffffffffff1673ffffffffffffffffffffffffffffffffffffffff168152602001908152602001600020600082815260200190815260200160002060009054906101000a900460ff16610b1d576040517f931d110100000000000000000000000000000000000000000000000000000000815260040160405180910390fd5b6000600360003373ffffffffffffffffffffffffffffffffffffffff1673ffffffffffffffffffffffffffffffffffffffff16815260200190815260200160002060008673ffffffffffffffffffffffffffffffffffffffff1673ffffffffffffffffffffffffffffffffffffffff168152602001908152602001600020600085815260200190815260200160002090508060020160009054906101000a900460ff16610bf6576040517f4c65df5500000000000000000000000000000000000000000000000000000000815260040160405180910390fd5b6000816000015403610c34576040517fa719107600000000000000000000000000000000000000000000000000000000815260040160405180910390fd5b80600001543414610c71576040517fced1a7db00000000000000000000000000000000000000000000000000000000815260040160405180910390fd5b600081600001819055503373ffffffffffffffffffffffffffffffffffffffff167fc200a1f31dd659e356e0f112c82558e25f49f7b0f84438691cd96f5cb355882334604051610cc19190611bc1565b60405180910390a25050505050565b818160011515600260003373ffffffffffffffffffffffffffffffffffffffff1673ffffffffffffffffffffffffffffffffffffffff16815260200190815260200160002060008673ffffffffffffffffffffffffffffffffffffffff1673ffffffffffffffffffffffffffffffffffffffff168152602001908152602001600020600085815260200190815260200160002060009054906101000a900460ff16151503610daa576040517fcbde1b8c00000000000000000000000000000000000000000000000000000000815260040160405180910390fd5b6001600260003373ffffffffffffffffffffffffffffffffffffffff1673ffffffffffffffffffffffffffffffffffffffff16815260200190815260200160002060008673ffffffffffffffffffffffffffffffffffffffff1673ffffffffffffffffffffffffffffffffffffffff168152602001908152602001600020600085815260200190815260200160002060006101000a81548160ff021916908315150217905550604051806060016040528060008152602001600154815260200160011515815250600360003373ffffffffffffffffffffffffffffffffffffffff1673ffffffffffffffffffffffffffffffffffffffff16815260200190815260200160002060008673ffffffffffffffffffffffffffffffffffffffff1673ffffffffffffffffffffffffffffffffffffffff1681526020019081526020016000206000858152602001908152602001600020600082015181600001556020820151816001015560408201518160020160006101000a81548160ff0219169083151502179055509050508373ffffffffffffffffffffffffffffffffffffffff166342842e0e3330866040518463ffffffff167c0100000000000000000000000000000000000000000000000000000000028152600401610f8e93929190611eb7565b600060405180830381600087803b158015610fa857600080fd5b505af1158015610fbc573d6000803e3d6000fd5b50505050828473ffffffffffffffffffffffffffffffffffffffff163373ffffffffffffffffffffffffffffffffffffffff167f46be9325b914d307fd0583790f058a2230f1f9e20ac98ddb704366bb8919cc5560405160405180910390a450505050565b81818383600260003373ffffffffffffffffffffffffffffffffffffffff1673ffffffffffffffffffffffffffffffffffffffff16815260200190815260200160002060008373ffffffffffffffffffffffffffffffffffffffff1673ffffffffffffffffffffffffffffffffffffffff168152602001908152602001600020600082815260200190815260200160002060009054906101000a900460ff166110f6576040517f931d110100000000000000000000000000000000000000000000000000000000815260040160405180910390fd5b6000600360003373ffffffffffffffffffffffffffffffffffffffff1673ffffffffffffffffffffffffffffffffffffffff16815260200190815260200160002060008873ffffffffffffffffffffffffffffffffffffffff1673ffffffffffffffffffffffffffffffffffffffff168152602001908152602001600020600087815260200190815260200160002090508060020160009054906101000a900460ff166111cf576040517f4c65df5500000000000000000000000000000000000000000000000000000000815260040160405180910390fd5b600081600001540361120d576040517fa719107600000000000000000000000000000000000000000000000000000000815260040160405180910390fd5b600154816001015411611255576040517f08c379a000000000000000000000000000000000000000000000000000000000815260040161124c90611f71565b60405180910390fd5b600060015482600001546112699190611f91565b9050600081836000015461127d9190611fc5565b90508034146112b8576040517fced1a7db00000000000000000000000000000000000000000000000000000000815260040160405180910390fd5b60008360020160006101000a81548160ff021916908315150217905550600260003373ffffffffffffffffffffffffffffffffffffffff1673ffffffffffffffffffffffffffffffffffffffff16815260200190815260200160002060008a73ffffffffffffffffffffffffffffffffffffffff1673ffffffffffffffffffffffffffffffffffffffff168152602001908152602001600020600089815260200190815260200160002060006101000a81549060ff02191690558873ffffffffffffffffffffffffffffffffffffffff166342842e0e30338b6040518463ffffffff167c01000000000000000000000000000000000000000000000000000000000281526004016113cb93929190611eb7565b600060405180830381600087803b1580156113e557600080fd5b505af11580156113f9573d6000803e3d6000fd5b50505050878973ffffffffffffffffffffffffffffffffffffffff163373ffffffffffffffffffffffffffffffffffffffff167f2e4e88cb84290935d379f7336e7c639935b24a8d94ad50e517a57d4162fd54e28460405161145b9190611bc1565b60405180910390a4505050505050505050565b60008054906101000a900473ffffffffffffffffffffffffffffffffffffffff1673ffffffffffffffffffffffffffffffffffffffff163373ffffffffffffffffffffffffffffffffffffffff16146114f3576040517f2c74b59800000000000000000000000000000000000000000000000000000000815260040160405180910390fd5b806001819055507f0a2373fd4f6f3779062db480c378fbddf267e3f078862b586ae6ad5b9b0a1038816040516115299190611bc1565b60405180910390a150565b81818383600260003373ffffffffffffffffffffffffffffffffffffffff1673ffffffffffffffffffffffffffffffffffffffff16815260200190815260200160002060008373ffffffffffffffffffffffffffffffffffffffff1673ffffffffffffffffffffffffffffffffffffffff168152602001908152602001600020600082815260200190815260200160002060009054906101000a900460ff16611609576040517f931d110100000000000000000000000000000000000000000000000000000000815260040160405180910390fd5b6000600360003373ffffffffffffffffffffffffffffffffffffffff1673ffffffffffffffffffffffffffffffffffffffff16815260200190815260200160002060008873ffffffffffffffffffffffffffffffffffffffff1673ffffffffffffffffffffffffffffffffffffffff168152602001908152602001600020600087815260200190815260200160002090508060020160009054906101000a900460ff166116e2576040517f4c65df5500000000000000000000000000000000000000000000000000000000815260040160405180910390fd5b600081600001541461171f576040517ef2ccf000000000000000000000000000000000000000000000000000000000815260040160405180910390fd5b60008160020160006101000a81548160ff021916908315150217905550600260003373ffffffffffffffffffffffffffffffffffffffff1673ffffffffffffffffffffffffffffffffffffffff16815260200190815260200160002060008873ffffffffffffffffffffffffffffffffffffffff1673ffffffffffffffffffffffffffffffffffffffff168152602001908152602001600020600087815260200190815260200160002060006101000a81549060ff02191690558673ffffffffffffffffffffffffffffffffffffffff166342842e0e3033896040518463ffffffff167c010000000000000000000000000000000000000000000000000000000002815260040161183293929190611eb7565b600060405180830381600087803b15801561184c57600080fd5b505af1158015611860573d6000803e3d6000fd5b50505050858773ffffffffffffffffffffffffffffffffffffffff163373ffffffffffffffffffffffffffffffffffffffff167fedc32de88f46de1f5a60596d4ac97cae11cca5fd17b261c55654e70274c64c6560405160405180910390a450505050505050565b604051806060016040528060008152602001600081526020016000151581525090565b6000604051905090565b600080fd5b600080fd5b600073ffffffffffffffffffffffffffffffffffffffff82169050919050565b600061192a826118ff565b9050919050565b61193a8161191f565b811461194557600080fd5b50565b60008135905061195781611931565b92915050565b6000819050919050565b6119708161195d565b811461197b57600080fd5b50565b60008135905061198d81611967565b92915050565b600080fd5b600080fd5b6000601f19601f8301169050919050565b7f4e487b7100000000000000000000000000000000000000000000000000000000600052604160045260246000fd5b6119e68261199d565b810181811067ffffffffffffffff82111715611a0557611a046119ae565b5b80604052505050565b6000611a186118eb565b9050611a2482826119dd565b919050565b600067ffffffffffffffff821115611a4457611a436119ae565b5b611a4d8261199d565b9050602081019050919050565b82818337600083830152505050565b6000611a7c611a7784611a29565b611a0e565b905082815260208101848484011115611a9857611a97611998565b5b611aa3848285611a5a565b509392505050565b600082601f830112611ac057611abf611993565b5b8135611ad0848260208601611a69565b91505092915050565b60008060008060808587031215611af357611af26118f5565b5b6000611b0187828801611948565b9450506020611b1287828801611948565b9350506040611b238782880161197e565b925050606085013567ffffffffffffffff811115611b4457611b436118fa565b5b611b5087828801611aab565b91505092959194509250565b60007fffffffff0000000000000000000000000000000000000000000000000000000082169050919050565b611b9181611b5c565b82525050565b6000602082019050611bac6000830184611b88565b92915050565b611bbb8161195d565b82525050565b6000602082019050611bd66000830184611bb2565b92915050565b600080600060608486031215611bf557611bf46118f5565b5b6000611c0386828701611948565b9350506020611c1486828701611948565b9250506040611c258682870161197e565b9150509250925092565b611c388161195d565b82525050565b60008115159050919050565b611c5381611c3e565b82525050565b606082016000820151611c6f6000850182611c2f565b506020820151611c826020850182611c2f565b506040820151611c956040850182611c4a565b50505050565b6000606082019050611cb06000830184611c59565b92915050565b60008060408385031215611ccd57611ccc6118f5565b5b6000611cdb85828601611948565b9250506020611cec8582860161197e565b9150509250929050565b611cff8161191f565b82525050565b6000602082019050611d1a6000830184611cf6565b92915050565b611d2981611c3e565b82525050565b6000602082019050611d446000830184611d20565b92915050565b600060208284031215611d6057611d5f6118f5565b5b6000611d6e8482850161197e565b91505092915050565b600081905092915050565b50565b6000611d92600083611d77565b9150611d9d82611d82565b600082019050919050565b6000611db382611d85565b9150819050919050565b6000604082019050611dd26000830185611cf6565b611ddf6020830184611bb2565b9392505050565b7f4e487b7100000000000000000000000000000000000000000000000000000000600052601160045260246000fd5b6000611e208261195d565b9150611e2b8361195d565b9250828202611e398161195d565b91508282048414831517611e5057611e4f611de6565b5b5092915050565b7f4e487b7100000000000000000000000000000000000000000000000000000000600052601260045260246000fd5b6000611e918261195d565b9150611e9c8361195d565b925082611eac57611eab611e57565b5b828204905092915050565b6000606082019050611ecc6000830186611cf6565b611ed96020830185611cf6565b611ee66040830184611bb2565b949350505050565b600082825260208201905092915050565b7f5661756c743a20557365722063616e206f6e6c79206265206c6971756964617460008201527f656420696620756e646572636f6c6c61746572616c697a656400000000000000602082015250565b6000611f5b603983611eee565b9150611f6682611eff565b604082019050919050565b60006020820190508181036000830152611f8a81611f4e565b9050919050565b6000611f9c8261195d565b9150611fa78361195d565b9250828203905081811115611fbf57611fbe611de6565b5b92915050565b6000611fd08261195d565b9150611fdb8361195d565b9250828201905080821115611ff357611ff2611de6565b5b9291505056fea26469706673582212208ba84b66c0ed8b74bbf11204f418f8754ebd8d7246d61a0aba98306dcaee295964736f6c63430008150033",
	"immutableReferences": {},
	"source": "// SPDX-License-Identifier: MIT\npragma solidity ^0.8.0;\n\nimport \"@openzeppelin/contracts/token/ERC721/IERC721.sol\";\nimport \"@openzeppelin/contracts/token/ERC721/utils/ERC721Holder.sol\";\n\ncontract Vault is ERC721Holder {\n\t//////////////////////////////////////\n\t/// Errors\n\t//////////////////////////////////////\n\n\terror Vault__InvalidAmountSent();\n\terror Vault__InvalidLoanAmount();\n\terror Vault__LiquidityTooLow();\n\terror Vault__OnlyAdmin();\n\terror Vault__OnlyTokenHolder();\n\terror Vault__TokenAlreadyDeposited();\n\terror Vault__TokenNotDeposited();\n\terror Vault__TokenLoanMustBeActive();\n\terror Vault__TokenLoanMustBeEmpty();\n\terror Vault__TokenLoanMustNotBeEmpty();\n\terror Vault__TokenValueTooLowToBorrow();\n\terror Vault__TransferFailed();\n\n\t//////////////////////////////////////\n\t/// Storage Variables\n\t//////////////////////////////////////\n\n\tuint256 private constant MAX_LOAN_TO_VALUE_RATIO = 80;\n\taddress private s_admin;\n\tuint256 private s_nftValue;\n\t// Tracks if a user has deposited a particular token ID in a given collection\n\t// user => (collection => (tokenId => true/false)))\n\tmapping(address => mapping(address => mapping(uint256 => bool))) private s_deposits;\n\t// Tracks if a user has an outstanding loan for a parituclar token ID in a given collection\n\t// user => (collection => (tokenId => true/false)))\n\tmapping(address => mapping(address => mapping(uint256 => Loan))) private s_loans;\n\n\n\t//////////////////////////////////////\n\t/// Structs\n\t//////////////////////////////////////\n\n\tstruct Loan {\n\t\tuint256 amount;\n\t\tuint256 nftValueAtTimeOfBorrow;\n\t\tbool active;\n\t}\n\n\t//////////////////////////////////////\n\t/// Events\n\t//////////////////////////////////////\n\n\tevent LiquidityProvided(uint256 amount);\n\tevent NftValueUpdated(uint256 value);\n\tevent Withdraw(address withdrawer, uint256 amount);\n\tevent LoanBorrowed(address indexed user, uint256 amount);\n\tevent LoanRepaid(address indexed user, uint256 amount);\n\tevent NftDeposited(address indexed user, address indexed collection, uint256 indexed tokenId);\n\tevent NftWithdrawn(address indexed user, address indexed collection, uint256 indexed tokenId);\n\tevent NftLiquidated(address indexed user, address indexed collection, uint256 indexed tokenId, uint256 amountOwed);\n\n\tconstructor() payable {\n\t\ts_admin = msg.sender;\n\t\ts_nftValue = 0.1 ether; // Initial static value of token.\n\t}\n\n\treceive() external payable {\n\t\tprovideLiquidity();\n\t}\n  fallback() external payable {\n\t\tprovideLiquidity();\n\t}\n\n\t//////////////////////////////////////\n\t/// Modifiers\n\t//////////////////////////////////////\n\n\tmodifier onlyAdmin() {\n\t\tif (msg.sender != s_admin) {\n\t\t\trevert Vault__OnlyAdmin();\n\t\t}\n\t\t_;\n\t}\n\n\tmodifier onlyTokenOwner(address _collection, uint256 _tokenId) {\n\t\t// TODO: this needs to be updated as this contract will end up owning the token after deposits\n\t\t// require(IERC721(_collection).ownerOf(_tokenId) == msg.sender, \"Vault: Caller is not the owner of the NFT\");\n\t\t// if (msg.sender != s_admin) {\n\t\t// \trevert Vault__OnlyTokenHolder();\n\t\t// }\n\t\t_;\n\t}\n\n\tmodifier tokenMustBeDeposited(address _collection, uint256 _tokenId) {\n\t\tif (!s_deposits[msg.sender][_collection][_tokenId]) {\n\t\t\trevert Vault__TokenNotDeposited();\n\t\t}\n\t\t_;\n\t}\n\n\t//////////////////////////////////////\n\t/// External Functions\n\t//////////////////////////////////////\n\n\tfunction provideLiquidity() public payable {\n\t\temit LiquidityProvided(msg.value);\n\t}\n\n\tfunction setNftValue(uint256 _nftValue) external onlyAdmin {\n\t\ts_nftValue = _nftValue;\n\t\temit NftValueUpdated(_nftValue);\n\t}\n\n\tfunction withdraw() external onlyAdmin {\n\t\t// Transfer contract balance to owner\n\t\tuint256 withdrawAmount = address(this).balance;\n\t\t(bool ok, ) = payable(s_admin).call{value: withdrawAmount}(\"\");\n\t\tif (!ok) {\n\t\t\trevert Vault__TransferFailed();\n\t\t}\n\t\temit Withdraw(s_admin, withdrawAmount);\n\t}\n\n\tfunction depositNft(address _collection, uint256 _tokenId) external onlyTokenOwner(_collection, _tokenId) {\n\t\tif (s_deposits[msg.sender][_collection][_tokenId] == true) {\n\t\t\trevert Vault__TokenAlreadyDeposited();\n\t\t}\n\n\t\t// Update deposit state for provided token\n\t\ts_deposits[msg.sender][_collection][_tokenId] = true;\n\n\t\t// Open up a new empty loan for the provided token\n\t\ts_loans[msg.sender][_collection][_tokenId] = Loan(0, s_nftValue, true);\n\n\t\t// Transfer the token to the contract (locks it)\n\t\tIERC721(_collection).safeTransferFrom(msg.sender, address(this), _tokenId);\n\n\t\t// Emit event\n\t\temit NftDeposited(msg.sender, _collection, _tokenId);\n\t}\n\n\tfunction borrowLoan(address _collection, uint256 _tokenId) external tokenMustBeDeposited(_collection, _tokenId) {\n\t\tLoan storage loan = s_loans[msg.sender][_collection][_tokenId];\n\n\t\tif (!loan.active) {\n\t\t\trevert Vault__TokenLoanMustBeActive();\n\t\t}\n\t\tif (loan.amount != 0) {\n\t\t\trevert Vault__TokenLoanMustBeEmpty();\n\t\t}\n\n\t\t// Calculate the loan amount to 80% of the value at the time it was borrowed\n\t\tuint256 nftValueAtTimeOfBorrow = loan.nftValueAtTimeOfBorrow;\n\t\tuint256 loanAmount = (nftValueAtTimeOfBorrow * MAX_LOAN_TO_VALUE_RATIO) / 100;\n\n\t\t// Update the loan amount\n\t\tloan.amount = loanAmount;\n\n\t\t// Check that the contract has enough to lend out\n\t\tif (address(this).balance < loanAmount) {\n\t\t\trevert Vault__LiquidityTooLow();\n\t\t}\n\n\t\t// Transfer the laon to the caller\n\t\t(bool ok, ) = payable(msg.sender).call{value: loan.amount}(\"\");\n\t\tif (!ok) {\n\t\t\trevert Vault__TransferFailed();\n\t\t}\n\n\t\temit LoanBorrowed(msg.sender, loanAmount);\n\t}\n\n\tfunction repayLoan(address _collection, uint256 _tokenId) external payable tokenMustBeDeposited(_collection, _tokenId) {\n\t\tLoan storage loan = s_loans[msg.sender][_collection][_tokenId];\n\n\t\tif (!loan.active) {\n\t\t\trevert Vault__TokenLoanMustBeActive();\n\t\t}\n\t\tif (loan.amount == 0) {\n\t\t\trevert Vault__TokenLoanMustNotBeEmpty();\n\t\t}\n\n\t\tif (msg.value != loan.amount) {\n\t\t\trevert Vault__InvalidAmountSent();\n\t\t}\n\n\t\t// Reset loan amount to be empty since it has been paid\n\t\tloan.amount = 0;\n\n\t\temit LoanRepaid(msg.sender, msg.value);\n\t}\n\n\tfunction withdrawNft(address _collection, uint256 _tokenId) external onlyTokenOwner(_collection, _tokenId) tokenMustBeDeposited(_collection, _tokenId) {\n\t\tLoan storage loan = s_loans[msg.sender][_collection][_tokenId];\n\n\t\tif (!loan.active) {\n\t\t\trevert Vault__TokenLoanMustBeActive();\n\t\t}\n\t\tif (loan.amount != 0) {\n\t\t\trevert Vault__TokenLoanMustBeEmpty();\n\t\t}\n\n\t\t// Close out the loan for the user and remove deposit accounting\n\t\tloan.active = false;\n\t\tdelete s_deposits[msg.sender][_collection][_tokenId];\n\n\t\t// Transfer the NFT back to the original owner\n\t\tIERC721(_collection).safeTransferFrom(address(this), msg.sender, _tokenId);\n\n\t\temit NftWithdrawn(msg.sender, _collection, _tokenId);\n\t}\n\n\tfunction liquidateNft(address _collection, uint256 _tokenId) external payable onlyTokenOwner(_collection, _tokenId) tokenMustBeDeposited(_collection, _tokenId) {\n\t\tLoan storage loan = s_loans[msg.sender][_collection][_tokenId];\n\n\t\tif (!loan.active) {\n\t\t\trevert Vault__TokenLoanMustBeActive();\n\t\t}\n\t\tif (loan.amount == 0) {\n\t\t\trevert Vault__TokenLoanMustNotBeEmpty();\n\t\t}\n\n\t\trequire(loan.nftValueAtTimeOfBorrow > s_nftValue, \"Vault: User can only be liquidated if undercollateralized\");\n\n\t\t// To \"liquidate\", the token owner must pay back the loan amount + the difference amount of under-collateralization in respect to the current value for the NFT, ie. the difference between the current value and the value at the time of depositing it\n\t\tuint256 fee = loan.amount - s_nftValue;\n\t\tuint256 amountOwed = loan.amount + fee;\n\n\t\tif (msg.value != amountOwed) {\n\t\t\trevert Vault__InvalidAmountSent();\n\t\t}\n\n\t\t// Close out the loan for the user and remove deposit accounting\n\t\tloan.active = false;\n\t\tdelete s_deposits[msg.sender][_collection][_tokenId];\n\n\t\t// Transfer the NFT back to the original owner\n\t\tIERC721(_collection).safeTransferFrom(address(this), msg.sender, _tokenId);\n\t\temit NftLiquidated(msg.sender, _collection, _tokenId, amountOwed);\n\t}\n\n\t//////////////////////////////////////\n\t/// Pure / View Functions\n\t//////////////////////////////////////\n\n\tfunction getAdmin() external view returns (address) {\n\t\treturn s_admin;\n\t}\n\n\tfunction getCurrentNftValue() external view returns (uint256) {\n\t\treturn s_nftValue;\n\t}\n\n\tfunction getUserTokenDeposit(address _depositor, address _collection, uint256 _tokenId) external view returns (bool) {\n\t\treturn s_deposits[_depositor][_collection][_tokenId];\n\t}\n\n\tfunction getUserLoan(address _depositor, address _collection, uint256 _tokenId) external view returns (Loan memory) {\n\t\treturn s_loans[_depositor][_collection][_tokenId];\n\t}\n}\n",
	"sourcePath": "/Users/antares/repos/_web3/borrow-lend-nfts/truffle/contracts/Vault.sol",
	"compiler": {
		"name": "solc",
		"version": "0.8.21+commit.d9974bed.Emscripten.clang"
	},
	"schemaVersion": "3.4.16",
	"updatedAt": "2023-10-21T06:56:21.934Z",
	"devdoc": {
		"kind": "dev",
		"methods": {
			"onERC721Received(address,address,uint256,bytes)": {
				"details": "See {IERC721Receiver-onERC721Received}. Always returns `IERC721Receiver.onERC721Received.selector`."
			}
		},
		"version": 1
	},
	"userdoc": {
		"errors": {
			"Vault__InvalidAmountSent()": [
				{
					"notice": "Errors"
				}
			]
		},
		"events": {
			"LiquidityProvided(uint256)": {
				"notice": "Events"
			}
		},
		"kind": "user",
		"methods": {
			"getAdmin()": {
				"notice": "Pure / View Functions"
			},
			"provideLiquidity()": {
				"notice": "External Functions"
			}
		},
		"version": 1
	}
}